{"abi":[{"type":"function","name":"Verify","inputs":[{"name":"proof","type":"bytes","internalType":"bytes"},{"name":"public_inputs","type":"uint256[]","internalType":"uint256[]"}],"outputs":[{"name":"success","type":"bool","internalType":"bool"}],"stateMutability":"view"}],"bytecode":{"object":"0x6080604052348015600f57600080fd5b506121be8061001f6000396000f3fe608060405234801561001057600080fd5b506004361061002b5760003560e01c80637e4f7a8a14610030575b600080fd5b61004361003e366004612063565b610057565b604051901515815260200160405180910390f35b6000604051610240810161006a84610382565b6100748585610395565b61007d866103d3565b610086876103e9565b600061009386868a610506565b905061009e8161082b565b90506100aa8189610880565b90506100b681896108fd565b5060608201516000805160206121498339815191526000805160206121698339815191526100e984630100000085612009565b086101c0840152506100fc818587610956565b61010782868a610ba6565b91506000805160206121498339815191528183086101a08401525061012c9050610ea4565b61013586611d19565b61013e86611c6a565b61014786611a34565b61015086611583565b61015986611341565b61016286610f89565b6102000151905061205b565b60405162461bcd60e51b815260206004820152601d60248201527f77726f6e67206e756d626572206f66207075626c696320696e707574730000006044820152606481fd5b60405162461bcd60e51b815260206004820152600c60248201526c06572726f72206d6f642065787609c1b6044820152606481fd5b60405162461bcd60e51b815260206004820152601260248201527132b93937b91032b19037b832b930ba34b7b760711b6044820152606481fd5b60405162461bcd60e51b815260206004820152601860248201527f696e707574732061726520626967676572207468616e207200000000000000006044820152606481fd5b60405162461bcd60e51b815260206004820152601060248201526f77726f6e672070726f6f662073697a6560801b6044820152606481fd5b60405162461bcd60e51b815260206004820152601660248201527537b832b734b733b9903134b3b3b2b9103a3430b7103960511b6044820152606481fd5b60405162461bcd60e51b815260206004820152600d60248201526c6572726f722070616972696e6760981b6044820152606481fd5b60405162461bcd60e51b815260206004820152600c60248201526b6572726f722076657269667960a01b6044820152606481fd5b60405162461bcd60e51b81526020600482015260146024820152736572726f722072616e646f6d2067656e206b7a6760601b6044820152606481fd5b600281146103925761039261016e565b50565b60005b818110156103ce57600080516020612169833981519152833511156103bf576103bf610222565b60209290920191600101610398565b505050565b6103608181146103e5576103e5610267565b5050565b61018081016000805160206121698339815191528135111561040d5761040d61029f565b506101a08101600080516020612169833981519152813511156104325761043261029f565b506101c08101600080516020612169833981519152813511156104575761045761029f565b506101e081016000805160206121698339815191528135111561047c5761047c61029f565b506102008101600080516020612169833981519152813511156104a1576104a161029f565b506102608101600080516020612169833981519152813511156104c6576104c661029f565b50610300810160005b60018110156103ce57600080516020612169833981519152823511156104f7576104f761029f565b602091909101906001016104cf565b600060405161024081016467616d6d6181527f231c22c1bdb73ea856c8df419a1a3d5cd64756eea7d3ff88445191766547df0a60208201527f26662addc27704fced94738f32c04a0ce7c738fdf192fc38c66ded0da05ff25e60408201527f274bc38569b26f0dbb6f68e765fd534e569e181510f7616a2d37a2ea9eaf117460608201527f16eee348cf12b860f9af358a2dd9a49947beb54d9d1aef8a40516f4f43a3d12b60808201527f2eb82c18a71af5619f50e44c2c9b8460c13989c9682bf96226041fc85cf3cbef60a08201527f0d8953351ec8c2b0d33b117538917cd78e61209d19af2619edec609fb4fd228660c08201527f0ecf753896753477637a37c8ec1ccdd1e5fe9c632a391598edd33812e6e64eb860e08201527edcf51acabe496ffa81d9105d7ce59e0c310db60373c8d16040548894bacfc66101008201527f231c051b766676ac5b0c5348e3d2811c28ac0092ecb0dc2a2d28115531262ecf6101208201527f08549442675c42a8bfd831e8153972dfe4805e358fff8c9a4e085a61a1895a1c6101408201527f0d004ee4d050057e4cd46126f4d2a6c9623a0ede72825fceed853f98d4cf69176101608201527f02b4d73b2f70de0117bbe5f9a509939400043d2c943965fda9a493ee964be7c26101808201527f17d7d1377050e977234a2303b1535fb4769fe6dc4d18cce3e0b7c7c94383a15c6101a08201527f29ccbb99014f4125fffb7c7e88ee167a7212c7e521e9dcebdc9fbfb0377d82096101c08201527f12161d51771ac2487cd60c594f07321d620d9375d6e44f1ffdf8e806a61545006101e08201527f01a748c5de58f154c506fa3e158b3d0e61907f0e3c26e1b6ad430be18445289f6102008201527f150d75d2df77de0c6fbae987a615ad86c1a4ef03ab5d741499d0f2885ae398a16102208201527f29cfa73470fc7a3cf075227c707b1af1ab2c44ca80224419715ca4c2ab3bcb61610240820152610260810160208602808883379081019060c0808784375061030501905060208282601b820160025afa90508061080757610807610312565b50805192505060008051602061214983398151915282066040820152509392505050565b600060405161024060405101636265746181528360208201526020816024601c840160025afa8061085e5761085e610312565b5080519250506000805160206121498339815191528206602082015250919050565b600060405161024060405101606564616c7068618252602082018681526020810190506103208601600160400280828437928301929190910190506040610220870182375060208282601b850160025afa9050806108e0576108e0610312565b505160008051602061214983398151915281069091529392505050565b60405161024060405101637a657461815283602082015260c0808401604083013760208160e4601c840160025afa8061093857610938610312565b50516000805160206121498339815191529006606091909101525050565b600060405160608101516101c0820151915085610975818785856109ce565b60009250600091505b858210156109c45760008051602061214983398151915285358251099250600080516020612149833981519152838508602095860195909450600192909201910161097e565b5050509392505050565b6000805160206121498339815191527f30644e427ce32d4886b01bfe313ba1dba6db8b2045d128178a7164500e0a6c11830960018560005b86811015610a63576000805160206121498339815191528360008051602061214983398151915203860882526000805160206121498339815191526000805160206121298339815191528409925060209190910190600101610a06565b50610a6f818789610ae0565b50600190508560005b86811015610ad657600080516020612149833981519152836000805160206121498339815191528685510909825260208201915060008051602061214983398151915260008051602061212983398151915284099250600101610a78565b5050505050505050565b600183526000805b83811015610b24578185015182840151600080516020612149833981519152818309905060208401935080848801525050600181019050610ae8565b506020810382019150808401935050610b53602084016002600080516020612149833981519152038551612009565b60005b83811015610b9f576020850394508251600080516020612149833981519152865184098452600080516020612149833981519152818409601f1990940193925050600101610b56565b5050505050565b600060405160608101516101c082015191506103208401600080610bd08960208501358535610cd7565b9150610be3896288af5f8a018787610c07565b90506000805160206121498339815191528082840987089998505050505050505050565b6000610c228585600080516020612129833981519152612009565b6000805160206121498339815191528160008051602061214983398151915203840894506000805160206121498339815191527f30644e427ce32d4886b01bfe313ba1dba6db8b2045d128178a7164500e0a6c1182099050610ca5867f30644e72e131a029b85045b68181585d2833e84879b9709143e1f593efffffff87612009565b945060008051602061214983398151915285820990506000805160206121498339815191528482099695505050505050565b600083526000602084015280604084015250806060830152506000608082015360306081820153600060828201536042608382015360536084820153604260858201536032608682015360326087820153602d608882015360506089820153606c608a820153606f608b820153606e608c820153606b608d820153600b608e8201536000602082608f8460025afa80610d7257610d72610312565b8251600160208501536042602185015360536022850153604260238501536032602485015360326025850153602d602685015360506027850153606c6028850153606f6029850153606e602a850153606b602b850153600b602c850153602084602d8660025afa915081610de857610de8610312565b8351186020840152600260408401536042604184015360536042840153604260438401536032604484015360326045840153602d604684015360506047840153606c6048840153606f6049840153606e604a840153606b604b840153600b604c84015360208301602081602d8360025afa91505080610e6957610e69610312565b50600080516020612149833981519152600160801b8351099050602082015160801c6000805160206121498339815191528183089392505050565b604051610240604051016101c0820151600080516020612149833981519152600160008051602061214983398151915203606085015108610f06837f30644e72e131a029b85045b68181585d2833e84879b9709143e1f593efffffff83612009565b90506000805160206121498339815191527f30644e427ce32d4886b01bfe313ba1dba6db8b2045d128178a7164500e0a6c1182099050600080516020612149833981519152828209845193509150600080516020612149833981519152905082820990506000805160206121498339815191528282099050806080840152505050565b60405161024081016101608201518152610180820151602082015261028083013560408201526102a08301356060820152610220830135608082015261024083013560a08201526102c083013560c08201526102e083013560e082015260608201516101008201526101e08201516101208201526020816101408360025afa8061101557611015610346565b60008051602061214983398151915282510690508160408101925061028085013581526102a0850135602082015261105383836102c0880184611f94565b61016084016110688484610220890184611f94565b610140850161107c84610260890183611fdb565b7f1fa4be93b5e7f7e674d5059b63554fab99638b304ed8310e9fa44c281ac9b03b85527f1a01ae7fac6228e39d3cb5a5e71fd31160f3241e79a5f48ffb3737e6c389b7216020860152805160408087019182529095908160608160075afa9150816110e9576110e9610312565b60208101915081517f30644e72e131a029b85045b68181585d97816a916871ca8d3c208c16d87cfd4703825261112186828586611e8b565b50508360408501945061113e8560608801516102808a0184611f22565b6000805160206121498339815191526000805160206121298339815191526060880151099550600080516020612149833981519152868509935061118885856102c08a0184611f94565b61119485828485611e8b565b50602082810180517f30644e72e131a029b85045b68181585d97816a916871ca8d3c208c16d87cfd470381528251865291810151908501527f198e9393920d483a7260bfb731fb5d25f1aa493335a9e71297e485b7aef312c260408501527f1800deef121f1e76426a00665e5c4479674322d4f75edadd46debd5cd992f6ed60608501527f090689d0585ff075ec9e99ad690c3395bc4b313370b38ef355acdadcd122975b60808501527f12c85ea5db8c6deb4aab71808dcb408fe3d1e7690c43d37b4ce6cc0166fa7daa60a0850152905160c0840152805160e08401527f22f1acbb03c4508760c2430af35865e7cdf9f3eb1224504fdcc3708ddb954a486101008401527f2a344fad01c2ed0ed73142ae1752429eaea515c6f3f6b941103cc21c2308e1cb6101208401527f159f15b842ba9c8449aa3268f981010d4c7142e5193473d80b464e964845c3f86101408401527f0efd30ac7b6f8d0d3ccbc2207587c2acbad1532dc0293f0d034cf8258cd428b361016084015292506103ce905081604051602060006101808460085afa80611332576113326102dd565b50600051610200919091015250565b6040516102406040510160208101604082016101e084015180610160860160e0870151815261010087015161018088015261012087015161014088015261138d868360008b0184611f94565b6113a0826101808a016101408a01611fdb565b60008051602061214983398151915283830991506113c3868360408b0184611f94565b6113d6826101a08a016101408a01611fdb565b60008051602061214983398151915283830991506113f9868360808b0184611f94565b61140c826101c08a016101408a01611fdb565b60008051602061214983398151915283830991507f231c22c1bdb73ea856c8df419a1a3d5cd64756eea7d3ff88445191766547df0a86527f26662addc27704fced94738f32c04a0ce7c738fdf192fc38c66ded0da05ff25e855261147284838884611f4d565b611485826101e08a016101408a01611fdb565b60008051602061214983398151915283830991507f274bc38569b26f0dbb6f68e765fd534e569e181510f7616a2d37a2ea9eaf117486527f16eee348cf12b860f9af358a2dd9a49947beb54d9d1aef8a40516f4f43a3d12b85526114eb84838884611f4d565b6114fe826102008a016101408a01611fdb565b610300880160008051602061214983398151915284840992507f150d75d2df77de0c6fbae987a615ad86c1a4ef03ab5d741499d0f2885ae398a187527f29cfa73470fc7a3cf075227c707b1af1ab2c44ca80224419715ca4c2ab3bcb61865261156985848985611f4d565b61157883826101408b01611fdb565b505050505050505050565b6040516467616d6d616102408201908152606082015161026083015260e08201516102808301526101008201516102a083015260c0836102c08401377f231c22c1bdb73ea856c8df419a1a3d5cd64756eea7d3ff88445191766547df0a6101408201527f26662addc27704fced94738f32c04a0ce7c738fdf192fc38c66ded0da05ff25e6101608201527f274bc38569b26f0dbb6f68e765fd534e569e181510f7616a2d37a2ea9eaf1174610180808301919091527f16eee348cf12b860f9af358a2dd9a49947beb54d9d1aef8a40516f4f43a3d12b6101a0808401919091527f150d75d2df77de0c6fbae987a615ad86c1a4ef03ab5d741499d0f2885ae398a16101c0808501919091527f29cfa73470fc7a3cf075227c707b1af1ab2c44ca80224419715ca4c2ab3bcb616101e0808601919091526101208601516102008087019190915293870135610220860152918601356102408501528501356102608401528401356102808301528301356102a08201526102c081016103008401602081833750610260840135602091820152601b906102e5906101e085018285850160025afa925050508061173957611739610312565b506101e00180516000805160206121498339815191529006905250565b604051610240604051017f0ecf753896753477637a37c8ec1ccdd1e5fe9c632a391598edd33812e6e64eb881527edcf51acabe496ffa81d9105d7ce59e0c310db60373c8d16040548894bacfc660208201526117bf604082016101808501358360e08601611ef7565b7f231c051b766676ac5b0c5348e3d2811c28ac0092ecb0dc2a2d28115531262ecf81527f08549442675c42a8bfd831e8153972dfe4805e358fff8c9a4e085a61a1895a1c602082015261181f604082016101a08501358360e08601611f4d565b6000805160206121498339815191526101a0840135610180850135097f0d004ee4d050057e4cd46126f4d2a6c9623a0ede72825fceed853f98d4cf691782527f02b4d73b2f70de0117bbe5f9a509939400043d2c943965fda9a493ee964be7c2602083015261189660408301828460e08701611f4d565b507f17d7d1377050e977234a2303b1535fb4769fe6dc4d18cce3e0b7c7c94383a15c81527f29ccbb99014f4125fffb7c7e88ee167a7212c7e521e9dcebdc9fbfb0377d820960208201526118f7604082016101c08501358360e08601611f4d565b7f12161d51771ac2487cd60c594f07321d620d9375d6e44f1ffdf8e806a615450081527f01a748c5de58f154c506fa3e158b3d0e61907f0e3c26e1b6ad430be18445289f6020820152611952604082018260e0850180611e8b565b6103008301610320840160005b600181101561199f5781358452602082013560208501526119896040850184358660e08901611f4d565b602092909201916040919091019060010161195f565b5050507f2eb82c18a71af5619f50e44c2c9b8460c13989c9682bf96226041fc85cf3cbef81527f0d8953351ec8c2b0d33b117538917cd78e61209d19af2619edec609fb4fd228660208201526119fd60408201858360e08601611f4d565b61022083013581526102408301356020820152611a2260408201868360e08601611f4d565b610b9f8160a0840160e0850180611e8b565b604051602081015160408201516060830151600084015160008051602061214983398151915284610260880135096000805160206121498339815191526101e0880135860960008051602061214983398151915261018089013582089050600080516020612149833981519152858208905060008051602061214983398151915261020089013587096000805160206121498339815191526101a08a01358208905060008051602061214983398151915286820890506000805160206121498339815191528284096000805160206121498339815191528282099050600080516020612149833981519152858209905060008051602061214983398151915260058009600080516020612149833981519152878a0998506000805160206121498339815191526101808c01358a089450600080516020612149833981519152888608945060008051602061214983398151915260058a0993506000805160206121498339815191526101a08c0135850893506000805160206121498339815191528885089350600080516020612149833981519152818a099250506000805160206121498339815191526101c08b013583089150600080516020612149833981519152878308915060008051602061214983398151915283850997506000805160206121498339815191528289096000805160206121498339815191529081039850858909975060008051602061214983398151915260808a015189089750611c5e88828c611756565b50505050505050505050565b604051600263010000000161024060405101611c8b81836060860151612009565b9150611ca08183610140870160a08701611f22565b611cb381610100860160a0860180611ec1565b611cc2818360a0860180611ef7565b611cd48160c0860160a0860180611ec1565b611ceb816101c085015160a0860160a08701611ef7565b505060c00180517f30644e72e131a029b85045b68181585d97816a916871ca8d3c208c16d87cfd4703905250565b604051600060008051602061214983398151915260208301516101e085013509905060008051602061214983398151915260408301518208905060008051602061214983398151915261018084013582089050600060008051602061214983398151915260208401516102008601350990506000805160206121498339815191526040840151820890506000805160206121498339815191526101a085013582089050600060008051602061214983398151915260408501516101c08701350890506000805160206121498339815191528284099250600080516020612149833981519152818409925050600080516020612149833981519152600084015183099150600080516020612149833981519152610260850135830991506000805160206121498339815191526101a0840151830860808401519092506000805160206121498339815191529081039150818308600080516020612149833981519152036101209390930192909252505050565b8151845260208201516020850152825160408501526020830151606085015260408160808660065afa80610b9f57610b9f6101e8565b8151845260208201516020850152823560408501526020830135606085015260408160808660065afa80610b9f57610b9f6101e8565b815184526020820151602085015282604085015260408160608660075afa80610b9f57610b9f6101e8565b813584526020820135602085015282604085015260408160608660075afa80610b9f57610b9f6101e8565b815184526020820151602085015282604085015260408460608660075afa815160408601526020820151606086015260408260808760065afa1680610b9f57610b9f6101e8565b813584526020820135602085015282604085015260408460608660075afa815160408601526020820151606086015260408260808760065afa1680610b9f57610b9f6101e8565b6000805160206121498339815191528383350960008051602061214983398151915281835108825250505050565b6020835260208084015260206040840152806060840152508060808301525060008051602061214983398151915260a0820152600060208260c08460055afa80612055576120556101b3565b50505190565b949350505050565b6000806000806040858703121561207957600080fd5b843567ffffffffffffffff8082111561209157600080fd5b818701915087601f8301126120a557600080fd5b8135818111156120b457600080fd5b8860208285010111156120c657600080fd5b6020928301965094509086013590808211156120e157600080fd5b818701915087601f8301126120f557600080fd5b81358181111561210457600080fd5b8860208260051b850101111561211957600080fd5b9598949750506020019450505056fe0c9fabc7845d50d2852e2a0371c6441f145e0db82e8326961c25f1e3e32b045b30644e72e131a029b85045b68181585d2833e84879b9709143e1f593f000000130644e72e131a029b85045b68181585d2833e84879b9709143e1f593f0000000a26469706673582212202bb5b59d16c75e50e811e5e989d347d84308f5cefd646e26887a2d6caf4a0bcc64736f6c63430008190033","linkReferences":{}},"methodIdentifiers":{"Verify(bytes,uint256[])":"7e4f7a8a"},"id":1}